{
  "_format": "hh-sol-artifact-1",
  "contractName": "ARBY",
  "sourceName": "contracts/ARBY.sol",
  "abi": [
    {
      "inputs": [
        {
          "internalType": "address",
          "name": "_addressProvider",
          "type": "address"
        }
      ],
      "stateMutability": "nonpayable",
      "type": "constructor"
    },
    {
      "anonymous": false,
      "inputs": [
        {
          "indexed": false,
          "internalType": "address",
          "name": "router",
          "type": "address"
        },
        {
          "indexed": false,
          "internalType": "address",
          "name": "tokenIn",
          "type": "address"
        },
        {
          "indexed": false,
          "internalType": "address",
          "name": "tokenOut",
          "type": "address"
        },
        {
          "indexed": false,
          "internalType": "uint256",
          "name": "amountOutMinimum",
          "type": "uint256"
        },
        {
          "indexed": false,
          "internalType": "uint160",
          "name": "sqrtX96",
          "type": "uint160"
        },
        {
          "indexed": false,
          "internalType": "uint24",
          "name": "poolFee",
          "type": "uint24"
        },
        {
          "indexed": false,
          "internalType": "bool",
          "name": "v3",
          "type": "bool"
        }
      ],
      "name": "TradeDecoded",
      "type": "event"
    },
    {
      "anonymous": false,
      "inputs": [
        {
          "indexed": false,
          "internalType": "address",
          "name": "router",
          "type": "address"
        },
        {
          "indexed": false,
          "internalType": "address",
          "name": "tokenIn",
          "type": "address"
        },
        {
          "indexed": false,
          "internalType": "address",
          "name": "tokenOut",
          "type": "address"
        },
        {
          "indexed": false,
          "internalType": "uint256",
          "name": "amountOut",
          "type": "uint256"
        },
        {
          "indexed": false,
          "internalType": "uint256",
          "name": "timestamp",
          "type": "uint256"
        }
      ],
      "name": "TradeExecuted",
      "type": "event"
    },
    {
      "anonymous": false,
      "inputs": [
        {
          "indexed": false,
          "internalType": "bool",
          "name": "success",
          "type": "bool"
        }
      ],
      "name": "TradeSuccess",
      "type": "event"
    },
    {
      "inputs": [],
      "name": "ADDRESSES_PROVIDER",
      "outputs": [
        {
          "internalType": "contract IPoolAddressesProvider",
          "name": "",
          "type": "address"
        }
      ],
      "stateMutability": "view",
      "type": "function"
    },
    {
      "inputs": [],
      "name": "POOL",
      "outputs": [
        {
          "internalType": "contract IPool",
          "name": "",
          "type": "address"
        }
      ],
      "stateMutability": "view",
      "type": "function"
    },
    {
      "inputs": [
        {
          "internalType": "address",
          "name": "asset",
          "type": "address"
        },
        {
          "internalType": "uint256",
          "name": "amount",
          "type": "uint256"
        },
        {
          "internalType": "uint256",
          "name": "premium",
          "type": "uint256"
        },
        {
          "internalType": "address",
          "name": "",
          "type": "address"
        },
        {
          "internalType": "bytes",
          "name": "params",
          "type": "bytes"
        }
      ],
      "name": "executeOperation",
      "outputs": [
        {
          "internalType": "bool",
          "name": "",
          "type": "bool"
        }
      ],
      "stateMutability": "nonpayable",
      "type": "function"
    },
    {
      "inputs": [
        {
          "internalType": "address",
          "name": "_tokenAddress",
          "type": "address"
        }
      ],
      "name": "getBalance",
      "outputs": [
        {
          "internalType": "uint256",
          "name": "",
          "type": "uint256"
        }
      ],
      "stateMutability": "view",
      "type": "function"
    },
    {
      "inputs": [
        {
          "internalType": "address",
          "name": "_token",
          "type": "address"
        },
        {
          "internalType": "uint256",
          "name": "_amount",
          "type": "uint256"
        },
        {
          "internalType": "bytes",
          "name": "_params",
          "type": "bytes"
        }
      ],
      "name": "requestFlashLoan",
      "outputs": [],
      "stateMutability": "nonpayable",
      "type": "function"
    },
    {
      "inputs": [
        {
          "internalType": "address",
          "name": "asset",
          "type": "address"
        },
        {
          "internalType": "uint256",
          "name": "amount",
          "type": "uint256"
        },
        {
          "internalType": "bytes",
          "name": "params",
          "type": "bytes"
        }
      ],
      "name": "simulateFlashLoan",
      "outputs": [
        {
          "internalType": "uint256",
          "name": "",
          "type": "uint256"
        }
      ],
      "stateMutability": "nonpayable",
      "type": "function"
    },
    {
      "inputs": [],
      "name": "tokenOutBalance",
      "outputs": [
        {
          "internalType": "uint256",
          "name": "",
          "type": "uint256"
        }
      ],
      "stateMutability": "view",
      "type": "function"
    },
    {
      "inputs": [],
      "name": "tokenOutInitialBalance",
      "outputs": [
        {
          "internalType": "uint256",
          "name": "",
          "type": "uint256"
        }
      ],
      "stateMutability": "view",
      "type": "function"
    },
    {
      "inputs": [],
      "name": "tradeableAmount",
      "outputs": [
        {
          "internalType": "uint256",
          "name": "",
          "type": "uint256"
        }
      ],
      "stateMutability": "view",
      "type": "function"
    },
    {
      "inputs": [
        {
          "internalType": "address",
          "name": "_tokenAddress",
          "type": "address"
        }
      ],
      "name": "withdraw",
      "outputs": [],
      "stateMutability": "nonpayable",
      "type": "function"
    },
    {
      "stateMutability": "payable",
      "type": "receive"
    }
  ],
  "bytecode": "0x60c06040523480156200001157600080fd5b506040516200297e3803806200297e8339818101604052810190620000379190620001c3565b808073ffffffffffffffffffffffffffffffffffffffff1660808173ffffffffffffffffffffffffffffffffffffffff16815250508073ffffffffffffffffffffffffffffffffffffffff1663026b1d5f6040518163ffffffff1660e01b8152600401602060405180830381865afa158015620000b8573d6000803e3d6000fd5b505050506040513d601f19601f82011682018060405250810190620000de9190620001c3565b73ffffffffffffffffffffffffffffffffffffffff1660a08173ffffffffffffffffffffffffffffffffffffffff168152505050336000806101000a81548173ffffffffffffffffffffffffffffffffffffffff021916908373ffffffffffffffffffffffffffffffffffffffff16021790555050620001f5565b600080fd5b600073ffffffffffffffffffffffffffffffffffffffff82169050919050565b60006200018b826200015e565b9050919050565b6200019d816200017e565b8114620001a957600080fd5b50565b600081519050620001bd8162000192565b92915050565b600060208284031215620001dc57620001db62000159565b5b6000620001ec84828501620001ac565b91505092915050565b60805160a051612755620002296000396000818161075e0152818161084301526110e20152600061028301526127556000f3fe6080604052600436106100955760003560e01c80637535d246116100595780637535d246146101985780639897f5b9146101c3578063c9c17919146101ee578063f8b2cb4f14610219578063fbe432be146102565761009c565b80630542975c146100a15780631b11d0ff146100cc5780635107d61e1461010957806351cff8d9146101325780635db4b7c31461015b5761009c565b3661009c57005b600080fd5b3480156100ad57600080fd5b506100b6610281565b6040516100c391906115fc565b60405180910390f35b3480156100d857600080fd5b506100f360048036038101906100ee9190611704565b6102a5565b60405161010091906117b9565b60405180910390f35b34801561011557600080fd5b50610130600480360381019061012b9190611915565b61082b565b005b34801561013e57600080fd5b5061015960048036038101906101549190611984565b6108de565b005b34801561016757600080fd5b50610182600480360381019061017d9190611915565b610a6d565b60405161018f91906119c0565b60405180910390f35b3480156101a457600080fd5b506101ad6110e0565b6040516101ba91906119fc565b60405180910390f35b3480156101cf57600080fd5b506101d8611104565b6040516101e591906119c0565b60405180910390f35b3480156101fa57600080fd5b5061020361110a565b60405161021091906119c0565b60405180910390f35b34801561022557600080fd5b50610240600480360381019061023b9190611984565b611110565b60405161024d91906119c0565b60405180910390f35b34801561026257600080fd5b5061026b611193565b60405161027891906119c0565b60405180910390f35b7f000000000000000000000000000000000000000000000000000000000000000081565b6000808773ffffffffffffffffffffffffffffffffffffffff166370a08231306040518263ffffffff1660e01b81526004016102e19190611a26565b602060405180830381865afa1580156102fe573d6000803e3d6000fd5b505050506040513d601f19601f820116820180604052508101906103229190611a56565b9050600087826103329190611ab2565b9050600085858101906103459190611cf5565b9050600089905060005b825181101561066f5761039f83828151811061036e5761036d611d3e565b5b6020026020010151602001518385848151811061038e5761038d611d3e565b5b602002602001015160000151611199565b5060008382815181106103b5576103b4611d3e565b5b60200260200101516040015173ffffffffffffffffffffffffffffffffffffffff166370a08231306040518263ffffffff1660e01b81526004016103f99190611a26565b602060405180830381865afa158015610416573d6000803e3d6000fd5b505050506040513d601f19601f8201168201806040525081019061043a9190611a56565b905083828151811061044f5761044e611d3e565b5b602002602001015160c00151156105295761052384838151811061047657610475611d3e565b5b60200260200101516000015185848151811061049557610494611d3e565b5b6020026020010151602001518685815181106104b4576104b3611d3e565b5b602002602001015160400151868887815181106104d4576104d3611d3e565b5b6020026020010151606001518988815181106104f3576104f2611d3e565b5b6020026020010151608001518a898151811061051257610511611d3e565b5b602002602001015160a00151611222565b506105b0565b6105ae84838151811061053f5761053e611d3e565b5b60200260200101516000015185848151811061055e5761055d611d3e565b5b60200260200101516020015186858151811061057d5761057c611d3e565b5b6020026020010151604001518688878151811061059d5761059c611d3e565b5b602002602001015160600151611388565b505b60008483815181106105c5576105c4611d3e565b5b60200260200101516040015173ffffffffffffffffffffffffffffffffffffffff166370a08231306040518263ffffffff1660e01b81526004016106099190611a26565b602060405180830381865afa158015610626573d6000803e3d6000fd5b505050506040513d601f19601f8201168201806040525081019061064a9190611a56565b905081816106589190611ab2565b93505050808061066790611d6d565b91505061034f565b5060008b73ffffffffffffffffffffffffffffffffffffffff166370a08231306040518263ffffffff1660e01b81526004016106ab9190611a26565b602060405180830381865afa1580156106c8573d6000803e3d6000fd5b505050506040513d601f19601f820116820180604052508101906106ec9190611a56565b9050838111610730576040517f08c379a000000000000000000000000000000000000000000000000000000000815260040161072790611e13565b60405180910390fd5b60008a8c61073e9190611e33565b90508c73ffffffffffffffffffffffffffffffffffffffff1663095ea7b37f0000000000000000000000000000000000000000000000000000000000000000836040518363ffffffff1660e01b815260040161079b929190611e89565b6020604051808303816000875af11580156107ba573d6000803e3d6000fd5b505050506040513d601f19601f820116820180604052508101906107de9190611ec7565b507f452a42ed80866442ab57fa9106b8d0f12a850d9f93ba15b360a06ce07075985e600160405161080f91906117b9565b60405180910390a1600196505050505050509695505050505050565b600030905060008490506000849050600084905060007f000000000000000000000000000000000000000000000000000000000000000073ffffffffffffffffffffffffffffffffffffffff166342b0b77c86868686866040518663ffffffff1660e01b81526004016108a2959493929190611f99565b600060405180830381600087803b1580156108bc57600080fd5b505af11580156108d0573d6000803e3d6000fd5b505050505050505050505050565b60008054906101000a900473ffffffffffffffffffffffffffffffffffffffff1673ffffffffffffffffffffffffffffffffffffffff163373ffffffffffffffffffffffffffffffffffffffff161461096c576040517f08c379a000000000000000000000000000000000000000000000000000000000815260040161096390612065565b60405180910390fd5b60008190508073ffffffffffffffffffffffffffffffffffffffff1663a9059cbb338373ffffffffffffffffffffffffffffffffffffffff166370a08231306040518263ffffffff1660e01b81526004016109c79190611a26565b602060405180830381865afa1580156109e4573d6000803e3d6000fd5b505050506040513d601f19601f82011682018060405250810190610a089190611a56565b6040518363ffffffff1660e01b8152600401610a25929190611e89565b6020604051808303816000875af1158015610a44573d6000803e3d6000fd5b505050506040513d601f19601f82011682018060405250810190610a689190611ec7565b505050565b6000808473ffffffffffffffffffffffffffffffffffffffff166370a08231306040518263ffffffff1660e01b8152600401610aa99190611a26565b602060405180830381865afa158015610ac6573d6000803e3d6000fd5b505050506040513d601f19601f82011682018060405250810190610aea9190611a56565b905060008111610b2f576040517f08c379a0000000000000000000000000000000000000000000000000000000008152600401610b26906120d1565b60405180910390fd5b60008482610b3d9190611ab2565b9050600084806020019051810190610b55919061227b565b90506001815111610b9b576040517f08c379a0000000000000000000000000000000000000000000000000000000008152600401610b9290612310565b60405180910390fd5b600086905060005b8251811015610fd8577f6aa12ef28854a9eed83335baaf48aea30595460c141f0b453e26fe9cf7fceb9d838281518110610be057610bdf611d3e565b5b602002602001015160000151848381518110610bff57610bfe611d3e565b5b602002602001015160200151858481518110610c1e57610c1d611d3e565b5b602002602001015160400151868581518110610c3d57610c3c611d3e565b5b602002602001015160600151878681518110610c5c57610c5b611d3e565b5b602002602001015160800151888781518110610c7b57610c7a611d3e565b5b602002602001015160a00151898881518110610c9a57610c99611d3e565b5b602002602001015160c00151604051610cb9979695949392919061234e565b60405180910390a1610d08838281518110610cd757610cd6611d3e565b5b60200260200101516020015183858481518110610cf757610cf6611d3e565b5b602002602001015160000151611199565b506000838281518110610d1e57610d1d611d3e565b5b60200260200101516040015173ffffffffffffffffffffffffffffffffffffffff166370a08231306040518263ffffffff1660e01b8152600401610d629190611a26565b602060405180830381865afa158015610d7f573d6000803e3d6000fd5b505050506040513d601f19601f82011682018060405250810190610da39190611a56565b9050838281518110610db857610db7611d3e565b5b602002602001015160c0015115610e9257610e8c848381518110610ddf57610dde611d3e565b5b602002602001015160000151858481518110610dfe57610dfd611d3e565b5b602002602001015160200151868581518110610e1d57610e1c611d3e565b5b60200260200101516040015186888781518110610e3d57610e3c611d3e565b5b602002602001015160600151898881518110610e5c57610e5b611d3e565b5b6020026020010151608001518a8981518110610e7b57610e7a611d3e565b5b602002602001015160a00151611222565b50610f19565b610f17848381518110610ea857610ea7611d3e565b5b602002602001015160000151858481518110610ec757610ec6611d3e565b5b602002602001015160200151868581518110610ee657610ee5611d3e565b5b60200260200101516040015186888781518110610f0657610f05611d3e565b5b602002602001015160600151611388565b505b6000848381518110610f2e57610f2d611d3e565b5b60200260200101516040015173ffffffffffffffffffffffffffffffffffffffff166370a08231306040518263ffffffff1660e01b8152600401610f729190611a26565b602060405180830381865afa158015610f8f573d6000803e3d6000fd5b505050506040513d601f19601f82011682018060405250810190610fb39190611a56565b90508181610fc19190611ab2565b935050508080610fd090611d6d565b915050610ba3565b5060008873ffffffffffffffffffffffffffffffffffffffff166370a08231306040518263ffffffff1660e01b81526004016110149190611a26565b602060405180830381865afa158015611031573d6000803e3d6000fd5b505050506040513d601f19601f820116820180604052508101906110559190611a56565b9050838111611099576040517f08c379a000000000000000000000000000000000000000000000000000000000815260040161109090611e13565b60405180910390fd5b7f452a42ed80866442ab57fa9106b8d0f12a850d9f93ba15b360a06ce07075985e60016040516110c991906117b9565b60405180910390a180955050505050509392505050565b7f000000000000000000000000000000000000000000000000000000000000000081565b60035481565b60015481565b60008173ffffffffffffffffffffffffffffffffffffffff166370a08231306040518263ffffffff1660e01b815260040161114b9190611a26565b602060405180830381865afa158015611168573d6000803e3d6000fd5b505050506040513d601f19601f8201168201806040525081019061118c9190611a56565b9050919050565b60025481565b60008373ffffffffffffffffffffffffffffffffffffffff1663095ea7b383856040518363ffffffff1660e01b81526004016111d6929190611e89565b6020604051808303816000875af11580156111f5573d6000803e3d6000fd5b505050506040513d601f19601f820116820180604052508101906112199190611ec7565b90509392505050565b60007f3fcfb2f2e0146d5be7268f9e4cd3c4c0ce3428f68805db227b7fc378db7519ac888888884260405161125b9594939291906123bd565b60405180910390a160006040518061010001604052808973ffffffffffffffffffffffffffffffffffffffff1681526020018873ffffffffffffffffffffffffffffffffffffffff1681526020018462ffffff1681526020013073ffffffffffffffffffffffffffffffffffffffff1681526020014281526020018781526020018681526020018573ffffffffffffffffffffffffffffffffffffffff1681525090508873ffffffffffffffffffffffffffffffffffffffff1663414bf389826040518263ffffffff1660e01b815260040161133791906124ee565b6020604051808303816000875af1158015611356573d6000803e3d6000fd5b505050506040513d601f19601f8201168201806040525081019061137a9190611a56565b915050979650505050505050565b60007f3fcfb2f2e0146d5be7268f9e4cd3c4c0ce3428f68805db227b7fc378db7519ac86868686426040516113c19594939291906123bd565b60405180910390a16060600267ffffffffffffffff8111156113e6576113e56117ea565b5b6040519080825280602002602001820160405280156114145781602001602082028036833780820191505090505b509050858160008151811061142c5761142b611d3e565b5b602002602001019073ffffffffffffffffffffffffffffffffffffffff16908173ffffffffffffffffffffffffffffffffffffffff1681525050848160018151811061147b5761147a611d3e565b5b602002602001019073ffffffffffffffffffffffffffffffffffffffff16908173ffffffffffffffffffffffffffffffffffffffff1681525050600042905060008873ffffffffffffffffffffffffffffffffffffffff166338ed173987878630876040518663ffffffff1660e01b81526004016114fd9594939291906125b9565b6000604051808303816000875af115801561151c573d6000803e3d6000fd5b505050506040513d6000823e3d601f19601f8201168201806040525081019061154591906126d6565b905080600182516115569190611ab2565b8151811061156757611566611d3e565b5b6020026020010151935050505095945050505050565b600073ffffffffffffffffffffffffffffffffffffffff82169050919050565b6000819050919050565b60006115c26115bd6115b88461157d565b61159d565b61157d565b9050919050565b60006115d4826115a7565b9050919050565b60006115e6826115c9565b9050919050565b6115f6816115db565b82525050565b600060208201905061161160008301846115ed565b92915050565b6000604051905090565b600080fd5b600080fd5b60006116368261157d565b9050919050565b6116468161162b565b811461165157600080fd5b50565b6000813590506116638161163d565b92915050565b6000819050919050565b61167c81611669565b811461168757600080fd5b50565b60008135905061169981611673565b92915050565b600080fd5b600080fd5b600080fd5b60008083601f8401126116c4576116c361169f565b5b8235905067ffffffffffffffff8111156116e1576116e06116a4565b5b6020830191508360018202830111156116fd576116fc6116a9565b5b9250929050565b60008060008060008060a0878903121561172157611720611621565b5b600061172f89828a01611654565b965050602061174089828a0161168a565b955050604061175189828a0161168a565b945050606061176289828a01611654565b935050608087013567ffffffffffffffff81111561178357611782611626565b5b61178f89828a016116ae565b92509250509295509295509295565b60008115159050919050565b6117b38161179e565b82525050565b60006020820190506117ce60008301846117aa565b92915050565b600080fd5b6000601f19601f8301169050919050565b7f4e487b7100000000000000000000000000000000000000000000000000000000600052604160045260246000fd5b611822826117d9565b810181811067ffffffffffffffff82111715611841576118406117ea565b5b80604052505050565b6000611854611617565b90506118608282611819565b919050565b600067ffffffffffffffff8211156118805761187f6117ea565b5b611889826117d9565b9050602081019050919050565b82818337600083830152505050565b60006118b86118b384611865565b61184a565b9050828152602081018484840111156118d4576118d36117d4565b5b6118df848285611896565b509392505050565b600082601f8301126118fc576118fb61169f565b5b813561190c8482602086016118a5565b91505092915050565b60008060006060848603121561192e5761192d611621565b5b600061193c86828701611654565b935050602061194d8682870161168a565b925050604084013567ffffffffffffffff81111561196e5761196d611626565b5b61197a868287016118e7565b9150509250925092565b60006020828403121561199a57611999611621565b5b60006119a884828501611654565b91505092915050565b6119ba81611669565b82525050565b60006020820190506119d560008301846119b1565b92915050565b60006119e6826115c9565b9050919050565b6119f6816119db565b82525050565b6000602082019050611a1160008301846119ed565b92915050565b611a208161162b565b82525050565b6000602082019050611a3b6000830184611a17565b92915050565b600081519050611a5081611673565b92915050565b600060208284031215611a6c57611a6b611621565b5b6000611a7a84828501611a41565b91505092915050565b7f4e487b7100000000000000000000000000000000000000000000000000000000600052601160045260246000fd5b6000611abd82611669565b9150611ac883611669565b925082821015611adb57611ada611a83565b5b828203905092915050565b600067ffffffffffffffff821115611b0157611b006117ea565b5b602082029050602081019050919050565b600080fd5b611b208161157d565b8114611b2b57600080fd5b50565b600081359050611b3d81611b17565b92915050565b600062ffffff82169050919050565b611b5b81611b43565b8114611b6657600080fd5b50565b600081359050611b7881611b52565b92915050565b611b878161179e565b8114611b9257600080fd5b50565b600081359050611ba481611b7e565b92915050565b600060e08284031215611bc057611bbf611b12565b5b611bca60e061184a565b90506000611bda84828501611654565b6000830152506020611bee84828501611654565b6020830152506040611c0284828501611654565b6040830152506060611c168482850161168a565b6060830152506080611c2a84828501611b2e565b60808301525060a0611c3e84828501611b69565b60a08301525060c0611c5284828501611b95565b60c08301525092915050565b6000611c71611c6c84611ae6565b61184a565b90508083825260208201905060e08402830185811115611c9457611c936116a9565b5b835b81811015611cbd5780611ca98882611baa565b84526020840193505060e081019050611c96565b5050509392505050565b600082601f830112611cdc57611cdb61169f565b5b8135611cec848260208601611c5e565b91505092915050565b600060208284031215611d0b57611d0a611621565b5b600082013567ffffffffffffffff811115611d2957611d28611626565b5b611d3584828501611cc7565b91505092915050565b7f4e487b7100000000000000000000000000000000000000000000000000000000600052603260045260246000fd5b6000611d7882611669565b91507fffffffffffffffffffffffffffffffffffffffffffffffffffffffffffffffff821415611dab57611daa611a83565b5b600182019050919050565b600082825260208201905092915050565b7f4e6f2070726f66697420776173206d6164650000000000000000000000000000600082015250565b6000611dfd601283611db6565b9150611e0882611dc7565b602082019050919050565b60006020820190508181036000830152611e2c81611df0565b9050919050565b6000611e3e82611669565b9150611e4983611669565b9250827fffffffffffffffffffffffffffffffffffffffffffffffffffffffffffffffff03821115611e7e57611e7d611a83565b5b828201905092915050565b6000604082019050611e9e6000830185611a17565b611eab60208301846119b1565b9392505050565b600081519050611ec181611b7e565b92915050565b600060208284031215611edd57611edc611621565b5b6000611eeb84828501611eb2565b91505092915050565b600081519050919050565b600082825260208201905092915050565b60005b83811015611f2e578082015181840152602081019050611f13565b83811115611f3d576000848401525b50505050565b6000611f4e82611ef4565b611f588185611eff565b9350611f68818560208601611f10565b611f71816117d9565b840191505092915050565b600061ffff82169050919050565b611f9381611f7c565b82525050565b600060a082019050611fae6000830188611a17565b611fbb6020830187611a17565b611fc860408301866119b1565b8181036060830152611fda8185611f43565b9050611fe96080830184611f8a565b9695505050505050565b7f4f6e6c792074686520636f6e7472616374206f776e65722063616e2063616c6c60008201527f20746869732066756e6374696f6e000000000000000000000000000000000000602082015250565b600061204f602e83611db6565b915061205a82611ff3565b604082019050919050565b6000602082019050818103600083015261207e81612042565b9050919050565b7f42616c616e636520697320300000000000000000000000000000000000000000600082015250565b60006120bb600c83611db6565b91506120c682612085565b602082019050919050565b600060208201905081810360008301526120ea816120ae565b9050919050565b6000815190506121008161163d565b92915050565b60008151905061211581611b17565b92915050565b60008151905061212a81611b52565b92915050565b600060e0828403121561214657612145611b12565b5b61215060e061184a565b90506000612160848285016120f1565b6000830152506020612174848285016120f1565b6020830152506040612188848285016120f1565b604083015250606061219c84828501611a41565b60608301525060806121b084828501612106565b60808301525060a06121c48482850161211b565b60a08301525060c06121d884828501611eb2565b60c08301525092915050565b60006121f76121f284611ae6565b61184a565b90508083825260208201905060e0840283018581111561221a576122196116a9565b5b835b81811015612243578061222f8882612130565b84526020840193505060e08101905061221c565b5050509392505050565b600082601f8301126122625761226161169f565b5b81516122728482602086016121e4565b91505092915050565b60006020828403121561229157612290611621565b5b600082015167ffffffffffffffff8111156122af576122ae611626565b5b6122bb8482850161224d565b91505092915050565b7f4e656564206d6f72652074726164657300000000000000000000000000000000600082015250565b60006122fa601083611db6565b9150612305826122c4565b602082019050919050565b60006020820190508181036000830152612329816122ed565b9050919050565b6123398161157d565b82525050565b61234881611b43565b82525050565b600060e082019050612363600083018a611a17565b6123706020830189611a17565b61237d6040830188611a17565b61238a60608301876119b1565b6123976080830186612330565b6123a460a083018561233f565b6123b160c08301846117aa565b98975050505050505050565b600060a0820190506123d26000830188611a17565b6123df6020830187611a17565b6123ec6040830186611a17565b6123f960608301856119b1565b61240660808301846119b1565b9695505050505050565b6124198161162b565b82525050565b61242881611b43565b82525050565b61243781611669565b82525050565b6124468161157d565b82525050565b610100820160008201516124636000850182612410565b5060208201516124766020850182612410565b506040820151612489604085018261241f565b50606082015161249c6060850182612410565b5060808201516124af608085018261242e565b5060a08201516124c260a085018261242e565b5060c08201516124d560c085018261242e565b5060e08201516124e860e085018261243d565b50505050565b600061010082019050612504600083018461244c565b92915050565b600081519050919050565b600082825260208201905092915050565b6000819050602082019050919050565b60006125428383612410565b60208301905092915050565b6000602082019050919050565b60006125668261250a565b6125708185612515565b935061257b83612526565b8060005b838110156125ac5781516125938882612536565b975061259e8361254e565b92505060018101905061257f565b5085935050505092915050565b600060a0820190506125ce60008301886119b1565b6125db60208301876119b1565b81810360408301526125ed818661255b565b90506125fc6060830185611a17565b61260960808301846119b1565b9695505050505050565b600067ffffffffffffffff82111561262e5761262d6117ea565b5b602082029050602081019050919050565b600061265261264d84612613565b61184a565b90508083825260208201905060208402830185811115612675576126746116a9565b5b835b8181101561269e578061268a8882611a41565b845260208401935050602081019050612677565b5050509392505050565b600082601f8301126126bd576126bc61169f565b5b81516126cd84826020860161263f565b91505092915050565b6000602082840312156126ec576126eb611621565b5b600082015167ffffffffffffffff81111561270a57612709611626565b5b612716848285016126a8565b9150509291505056fea264697066735822122086fcffa2afc72b4eae7c309da14f3118d2b9cbc538b3e26c8656c910e0d073e764736f6c634300080a0033",
  "linkReferences": {},
  "deployedLinkReferences": {}
}